{
  "_format": "hh-sol-artifact-1",
  "contractName": "PaymentProxy",
  "sourceName": "contracts/PaymentProxy.sol",
  "abi": [
    {
      "inputs": [
        {
          "internalType": "address",
          "name": "_firstOwner",
          "type": "address"
        },
        {
          "internalType": "string",
          "name": "_name",
          "type": "string"
        }
      ],
      "stateMutability": "nonpayable",
      "type": "constructor"
    },
    {
      "anonymous": false,
      "inputs": [
        {
          "indexed": true,
          "internalType": "address",
          "name": "spender",
          "type": "address"
        },
        {
          "indexed": true,
          "internalType": "address",
          "name": "itemRecipient",
          "type": "address"
        },
        {
          "indexed": true,
          "internalType": "uint256",
          "name": "nonce",
          "type": "uint256"
        },
        {
          "indexed": false,
          "internalType": "uint256[]",
          "name": "itemIDsPurchased",
          "type": "uint256[]"
        }
      ],
      "name": "ItemBurn",
      "type": "event"
    },
    {
      "anonymous": false,
      "inputs": [
        {
          "indexed": true,
          "internalType": "address",
          "name": "spender",
          "type": "address"
        },
        {
          "indexed": true,
          "internalType": "address",
          "name": "itemRecipient",
          "type": "address"
        },
        {
          "indexed": true,
          "internalType": "uint256",
          "name": "nonce",
          "type": "uint256"
        },
        {
          "indexed": false,
          "internalType": "uint256[]",
          "name": "itemIDsPurchased",
          "type": "uint256[]"
        }
      ],
      "name": "ItemPurchase",
      "type": "event"
    },
    {
      "anonymous": false,
      "inputs": [
        {
          "indexed": true,
          "internalType": "address",
          "name": "previousOwner",
          "type": "address"
        },
        {
          "indexed": true,
          "internalType": "address",
          "name": "newOwner",
          "type": "address"
        }
      ],
      "name": "OwnershipTransferred",
      "type": "event"
    },
    {
      "stateMutability": "nonpayable",
      "type": "fallback"
    },
    {
      "inputs": [
        {
          "internalType": "address",
          "name": "_niftyswapAddress",
          "type": "address"
        },
        {
          "internalType": "uint256[]",
          "name": "_swapTokenIds",
          "type": "uint256[]"
        },
        {
          "internalType": "uint256[]",
          "name": "_swapAmounts",
          "type": "uint256[]"
        },
        {
          "internalType": "address",
          "name": "_currencyToken",
          "type": "address"
        },
        {
          "internalType": "uint256",
          "name": "_currencyAmount",
          "type": "uint256"
        },
        {
          "internalType": "uint32",
          "name": "_nonce",
          "type": "uint32"
        },
        {
          "internalType": "uint256[]",
          "name": "_itemIDsPurchased",
          "type": "uint256[]"
        },
        {
          "internalType": "address",
          "name": "_itemRecipient",
          "type": "address"
        }
      ],
      "name": "buyAndBurn",
      "outputs": [],
      "stateMutability": "nonpayable",
      "type": "function"
    },
    {
      "inputs": [],
      "name": "getOwner",
      "outputs": [
        {
          "internalType": "address",
          "name": "",
          "type": "address"
        }
      ],
      "stateMutability": "view",
      "type": "function"
    },
    {
      "inputs": [],
      "name": "name",
      "outputs": [
        {
          "internalType": "string",
          "name": "",
          "type": "string"
        }
      ],
      "stateMutability": "view",
      "type": "function"
    },
    {
      "inputs": [
        {
          "internalType": "address",
          "name": "",
          "type": "address"
        }
      ],
      "name": "nonces",
      "outputs": [
        {
          "internalType": "uint256",
          "name": "",
          "type": "uint256"
        }
      ],
      "stateMutability": "view",
      "type": "function"
    },
    {
      "inputs": [
        {
          "internalType": "address",
          "name": "",
          "type": "address"
        },
        {
          "internalType": "address",
          "name": "_from",
          "type": "address"
        },
        {
          "internalType": "uint256[]",
          "name": "_ids",
          "type": "uint256[]"
        },
        {
          "internalType": "uint256[]",
          "name": "_amounts",
          "type": "uint256[]"
        },
        {
          "internalType": "bytes",
          "name": "_data",
          "type": "bytes"
        }
      ],
      "name": "onERC1155BatchReceived",
      "outputs": [
        {
          "internalType": "bytes4",
          "name": "",
          "type": "bytes4"
        }
      ],
      "stateMutability": "nonpayable",
      "type": "function"
    },
    {
      "inputs": [
        {
          "internalType": "address",
          "name": "_operator",
          "type": "address"
        },
        {
          "internalType": "address",
          "name": "_from",
          "type": "address"
        },
        {
          "internalType": "uint256",
          "name": "_id",
          "type": "uint256"
        },
        {
          "internalType": "uint256",
          "name": "_amount",
          "type": "uint256"
        },
        {
          "internalType": "bytes",
          "name": "_data",
          "type": "bytes"
        }
      ],
      "name": "onERC1155Received",
      "outputs": [
        {
          "internalType": "bytes4",
          "name": "",
          "type": "bytes4"
        }
      ],
      "stateMutability": "nonpayable",
      "type": "function"
    },
    {
      "inputs": [
        {
          "internalType": "address",
          "name": "_currencyToken",
          "type": "address"
        },
        {
          "internalType": "uint256",
          "name": "_currencyAmount",
          "type": "uint256"
        },
        {
          "internalType": "uint32",
          "name": "_nonce",
          "type": "uint32"
        },
        {
          "internalType": "uint256[]",
          "name": "_itemIDsPurchased",
          "type": "uint256[]"
        },
        {
          "internalType": "address",
          "name": "_itemRecipient",
          "type": "address"
        }
      ],
      "name": "purchaseItems",
      "outputs": [],
      "stateMutability": "nonpayable",
      "type": "function"
    },
    {
      "inputs": [
        {
          "internalType": "bytes4",
          "name": "interfaceID",
          "type": "bytes4"
        }
      ],
      "name": "supportsInterface",
      "outputs": [
        {
          "internalType": "bool",
          "name": "",
          "type": "bool"
        }
      ],
      "stateMutability": "pure",
      "type": "function"
    },
    {
      "inputs": [
        {
          "internalType": "address",
          "name": "_newOwner",
          "type": "address"
        }
      ],
      "name": "transferOwnership",
      "outputs": [],
      "stateMutability": "nonpayable",
      "type": "function"
    },
    {
      "inputs": [
        {
          "internalType": "address",
          "name": "_recipient",
          "type": "address"
        },
        {
          "internalType": "address",
          "name": "_erc20",
          "type": "address"
        }
      ],
      "name": "withdrawERC20",
      "outputs": [],
      "stateMutability": "nonpayable",
      "type": "function"
    }
  ],
  "bytecode": "0x60806040523480156200001157600080fd5b506040516200252238038062002522833981016040819052620000349162000147565b600080546001600160a01b0319166001600160a01b03841690811782556040518492907f8be0079c531659141344cd1fd0a4f28419497f9722a3daafe3b4186f6b6457e0908290a3508051620000929060029060208401906200009b565b50505062000229565b828054600181600116156101000203166002900490600052602060002090601f016020900481019282620000d357600085556200011e565b82601f10620000ee57805160ff19168380011785556200011e565b828001600101855582156200011e579182015b828111156200011e57825182559160200191906001019062000101565b506200012c92915062000130565b5090565b5b808211156200012c576000815560010162000131565b600080604083850312156200015a578182fd5b82516001600160a01b038116811462000171578283fd5b602084810151919350906001600160401b038082111562000190578384fd5b818601915086601f830112620001a4578384fd5b815181811115620001b157fe5b604051601f8201601f1916810185018381118282101715620001cf57fe5b6040528181528382018501891015620001e6578586fd5b8592505b81831015620002095783830185015181840186015291840191620001ea565b818311156200021a57858583830101525b80955050505050509250929050565b6122e980620002396000396000f3fe608060405234801561001057600080fd5b50600436106100be5760003560e01c8063893d20e811610076578063bc197c811161005b578063bc197c81146101a7578063f23a6e61146101c7578063f2fde38b146101da576100be565b8063893d20e81461017f5780639456fbcc14610194576100be565b80631fbe0e90116100a75780631fbe0e90146101375780637ecebe001461014c57806388d524ef1461016c576100be565b806301ffc9a7146100f957806306fdde0314610122575b6040517f08c379a00000000000000000000000000000000000000000000000000000000081526004016100f090611f8f565b60405180910390fd5b61010c610107366004611b6a565b6101ed565b6040516101199190611e2c565b60405180910390f35b61012a610288565b6040516101199190611e64565b61014a610145366004611a8e565b610331565b005b61015f61015a366004611794565b61049a565b60405161011991906121bd565b61014a61017a3660046119a8565b6104ac565b61018761096a565b6040516101199190611cdf565b61014a6101a23660046117b7565b610986565b6101ba6101b53660046117ef565b610b78565b6040516101199190611e37565b6101ba6101d5366004611903565b610e51565b61014a6101e8366004611794565b610f40565b60007fffffffff0000000000000000000000000000000000000000000000000000000082167f01ffc9a700000000000000000000000000000000000000000000000000000000148061028057507fffffffff0000000000000000000000000000000000000000000000000000000082167f4e2312e000000000000000000000000000000000000000000000000000000000145b90505b919050565b600280546040805160206001841615610100027fffffffffffffffffffffffffffffffffffffffffffffffffffffffffffffffff01909316849004601f810184900484028201840190925281815292918301828280156103295780601f106102fe57610100808354040283529160200191610329565b820191906000526020600020905b81548152906001019060200180831161030c57829003601f168201915b505050505081565b73ffffffffffffffffffffffffffffffffffffffff8616158015906103565750600085115b61038c576040517f08c379a00000000000000000000000000000000000000000000000000000000081526004016100f090612160565b3360009081526001602052604090205463ffffffff851681146103db576040517f08c379a00000000000000000000000000000000000000000000000000000000081526004016100f090611fec565b3360009081526001602081905260408220908301905573ffffffffffffffffffffffffffffffffffffffff83166104125733610414565b825b90506104228833308a611051565b8563ffffffff168173ffffffffffffffffffffffffffffffffffffffff163373ffffffffffffffffffffffffffffffffffffffff167fdccf8b99ed5a138d2390b19fdc1494526424496052456bbb1fb1d160a35418648888604051610488929190611d26565b60405180910390a45050505050505050565b60016020526000908152604090205481565b73ffffffffffffffffffffffffffffffffffffffff8b16158015906104d057508815155b80156104db57508615155b80156104e657508887145b8015610507575073ffffffffffffffffffffffffffffffffffffffff861615155b80156105135750600085115b610549576040517f08c379a00000000000000000000000000000000000000000000000000000000081526004016100f090612160565b6040517f70a0823100000000000000000000000000000000000000000000000000000000815260009073ffffffffffffffffffffffffffffffffffffffff8816906370a082319061059e903090600401611cdf565b60206040518083038186803b1580156105b657600080fd5b505afa1580156105ca573d6000803e3d6000fd5b505050506040513d601f19601f820116820180604052508101906105ee9190611c40565b90506105fc87333089611051565b610607878d88611221565b600073ffffffffffffffffffffffffffffffffffffffff831661062a573361062c565b825b905060405180606001604052808273ffffffffffffffffffffffffffffffffffffffff1681526020018763ffffffff16815260200186868080602002602001604051908101604052809392919081815260200183836020028082843760009201919091525050509152508051600480547fffffffffffffffffffffffff00000000000000000000000000000000000000001673ffffffffffffffffffffffffffffffffffffffff909216919091178155602080830151600555604083015180516106fa9260069201906115a8565b5050600380547fffffffffffffffffffffffff000000000000000000000000000000000000000016331790555073ffffffffffffffffffffffffffffffffffffffff8d1663d93e8aaa8d8d8d8d8c42306000604051908082528060200260200182016040528015610775578160200160208202803683370190505b50604080516000815260208101918290527fffffffff0000000000000000000000000000000000000000000000000000000060e08c901b169091526107c598979695949392919060248101611d3a565b600060405180830381600087803b1580156107df57600080fd5b505af11580156107f3573d6000803e3d6000fd5b505050506040513d6000823e601f3d9081017fffffffffffffffffffffffffffffffffffffffffffffffffffffffffffffffe01682016040526108399190810190611b0f565b50600480547fffffffffffffffffffffffff0000000000000000000000000000000000000000168155600060058190556108746006826115f3565b5050600380547fffffffffffffffffffffffff00000000000000000000000000000000000000001690556040517f70a0823100000000000000000000000000000000000000000000000000000000815260009073ffffffffffffffffffffffffffffffffffffffff8a16906370a08231906108f3903090600401611cdf565b60206040518083038186803b15801561090b57600080fd5b505afa15801561091f573d6000803e3d6000fd5b505050506040513d601f19601f820116820180604052508101906109439190611c40565b90508281111561095a5761095a89838584036113e8565b5050505050505050505050505050565b60005473ffffffffffffffffffffffffffffffffffffffff1690565b60005473ffffffffffffffffffffffffffffffffffffffff1633146109d7576040517f08c379a00000000000000000000000000000000000000000000000000000000081526004016100f090612049565b73ffffffffffffffffffffffffffffffffffffffff8216610a24576040517f08c379a00000000000000000000000000000000000000000000000000000000081526004016100f090611ed5565b6040517f70a0823100000000000000000000000000000000000000000000000000000000815260009073ffffffffffffffffffffffffffffffffffffffff8316906370a0823190610a79903090600401611cdf565b60206040518083038186803b158015610a9157600080fd5b505afa158015610aa5573d6000803e3d6000fd5b505050506040513d601f19601f82011682018060405250810190610ac99190611c40565b6040517fa9059cbb00000000000000000000000000000000000000000000000000000000815290915073ffffffffffffffffffffffffffffffffffffffff83169063a9059cbb90610b209086908590600401611d00565b602060405180830381600087803b158015610b3a57600080fd5b505af1158015610b4e573d6000803e3d6000fd5b505050506040513d601f19601f82011682018060405250810190610b729190611b4a565b50505050565b6000610b82611614565b8251610c3257604080516060810182526004805473ffffffffffffffffffffffffffffffffffffffff168252600554602080840191909152600680548551818402810184018752818152949593949386019392830182828015610c0457602002820191906000526020600020905b815481526020019060010190808311610bf0575b50505091909252505060035473ffffffffffffffffffffffffffffffffffffffff169750909150610c499050565b82806020019051810190610c469190611baa565b90505b600081604001515111610c88576040517f08c379a00000000000000000000000000000000000000000000000000000000081526004016100f0906120a6565b805160009073ffffffffffffffffffffffffffffffffffffffff16610cad5786610cb0565b81515b73ffffffffffffffffffffffffffffffffffffffff881660009081526001602090815260409091205490840151919250908114610d19576040517f08c379a00000000000000000000000000000000000000000000000000000000081526004016100f090612103565b73ffffffffffffffffffffffffffffffffffffffff88166000908152600160208190526040918290209083019055517f20ec271b00000000000000000000000000000000000000000000000000000000815233906320ec271b90610d83908a908a90600401611dfe565b600060405180830381600087803b158015610d9d57600080fd5b505af1158015610db1573d6000803e3d6000fd5b5050505082602001518273ffffffffffffffffffffffffffffffffffffffff168973ffffffffffffffffffffffffffffffffffffffff167f2095ce97258e73096d4143da4a4daa16b0bff48b7e853f881c48cc8d781c7ac38660400151604051610e1b9190611deb565b60405180910390a4507fbc197c810000000000000000000000000000000000000000000000000000000098975050505050505050565b604080516001808252818301909252600091606091906020808301908036833750506040805160018082528183019092529293506060929150602080830190803683370190505090508682600081518110610ea857fe5b6020026020010181815250508581600081518110610ec257fe5b602002602001018181525050610f118989848489898080601f016020809104026020016040519081016040528093929190818152602001838380828437600092019190915250610b7892505050565b507ff23a6e61000000000000000000000000000000000000000000000000000000009998505050505050505050565b60005473ffffffffffffffffffffffffffffffffffffffff163314610f91576040517f08c379a00000000000000000000000000000000000000000000000000000000081526004016100f090612049565b73ffffffffffffffffffffffffffffffffffffffff8116610fde576040517f08c379a00000000000000000000000000000000000000000000000000000000081526004016100f090611f32565b600080547fffffffffffffffffffffffff00000000000000000000000000000000000000001673ffffffffffffffffffffffffffffffffffffffff83811691821780845560405192939116917f8be0079c531659141344cd1fd0a4f28419497f9722a3daafe3b4186f6b6457e09190a350565b6040805173ffffffffffffffffffffffffffffffffffffffff85811660248301528481166044830152606480830185905283518084039091018152608490920183526020820180517bffffffffffffffffffffffffffffffffffffffffffffffffffffffff167f23b872dd0000000000000000000000000000000000000000000000000000000017815292518251600094606094938a169392918291908083835b6020831061112f57805182527fffffffffffffffffffffffffffffffffffffffffffffffffffffffffffffffe090920191602091820191016110f2565b6001836020036101000a0380198251168184511680821785525050505050509050019150506000604051808303816000865af19150503d8060008114611191576040519150601f19603f3d011682016040523d82523d6000602084013e611196565b606091505b50915091508180156111c45750805115806111c457508080602001905160208110156111c157600080fd5b50515b611219576040517f08c379a000000000000000000000000000000000000000000000000000000000815260040180806020018281038252603181526020018061222b6031913960400191505060405180910390fd5b505050505050565b6040805173ffffffffffffffffffffffffffffffffffffffff8481166024830152604480830185905283518084039091018152606490920183526020820180517bffffffffffffffffffffffffffffffffffffffffffffffffffffffff167f095ea7b300000000000000000000000000000000000000000000000000000000178152925182516000946060949389169392918291908083835b602083106112f757805182527fffffffffffffffffffffffffffffffffffffffffffffffffffffffffffffffe090920191602091820191016112ba565b6001836020036101000a0380198251168184511680821785525050505050509050019150506000604051808303816000865af19150503d8060008114611359576040519150601f19603f3d011682016040523d82523d6000602084013e61135e565b606091505b509150915081801561138c57508051158061138c575080806020019051602081101561138957600080fd5b50515b6113e1576040517f08c379a000000000000000000000000000000000000000000000000000000000815260040180806020018281038252602b81526020018061225c602b913960400191505060405180910390fd5b5050505050565b6040805173ffffffffffffffffffffffffffffffffffffffff8481166024830152604480830185905283518084039091018152606490920183526020820180517bffffffffffffffffffffffffffffffffffffffffffffffffffffffff167fa9059cbb00000000000000000000000000000000000000000000000000000000178152925182516000946060949389169392918291908083835b602083106114be57805182527fffffffffffffffffffffffffffffffffffffffffffffffffffffffffffffffe09092019160209182019101611481565b6001836020036101000a0380198251168184511680821785525050505050509050019150506000604051808303816000865af19150503d8060008114611520576040519150601f19603f3d011682016040523d82523d6000602084013e611525565b606091505b5091509150818015611553575080511580611553575080806020019051602081101561155057600080fd5b50515b6113e1576040517f08c379a000000000000000000000000000000000000000000000000000000000815260040180806020018281038252602d815260200180612287602d913960400191505060405180910390fd5b8280548282559060005260206000209081019282156115e3579160200282015b828111156115e35782518255916020019190600101906115c8565b506115ef92915061164b565b5090565b5080546000825590600052602060002090810190611611919061164b565b50565b6040518060600160405280600073ffffffffffffffffffffffffffffffffffffffff16815260200160008152602001606081525090565b5b808211156115ef576000815560010161164c565b803561028381612208565b60008083601f84011261167c578182fd5b50813567ffffffffffffffff811115611693578182fd5b60208301915083602080830285010111156116ad57600080fd5b9250929050565b600082601f8301126116c4578081fd5b81356116d76116d2826121ea565b6121c6565b8181529150602080830190848101818402860182018710156116f857600080fd5b60005b84811015611717578135845292820192908201906001016116fb565b505050505092915050565b600082601f830112611732578081fd5b81516117406116d2826121ea565b81815291506020808301908481018184028601820187101561176157600080fd5b60005b8481101561171757815184529282019290820190600101611764565b803563ffffffff8116811461028357600080fd5b6000602082840312156117a5578081fd5b81356117b081612208565b9392505050565b600080604083850312156117c9578081fd5b82356117d481612208565b915060208301356117e481612208565b809150509250929050565b600080600080600060a08688031215611806578081fd5b853561181181612208565b945060208681013561182281612208565b9450604087013567ffffffffffffffff8082111561183e578384fd5b61184a8a838b016116b4565b9550606089013591508082111561185f578384fd5b61186b8a838b016116b4565b94506080890135915080821115611880578384fd5b818901915089601f830112611893578384fd5b81358181111561189f57fe5b6118cf847fffffffffffffffffffffffffffffffffffffffffffffffffffffffffffffffe0601f840116016121c6565b91508082528a848285010111156118e4578485fd5b8084840185840137810190920192909252949793965091945092919050565b60008060008060008060a0878903121561191b578081fd5b863561192681612208565b9550602087013561193681612208565b94506040870135935060608701359250608087013567ffffffffffffffff80821115611960578283fd5b818901915089601f830112611973578283fd5b813581811115611981578384fd5b8a6020828501011115611992578384fd5b6020830194508093505050509295509295509295565b60008060008060008060008060008060006101008c8e0312156119c9578485fd5b6119d28c611660565b9a5067ffffffffffffffff8060208e013511156119ed578586fd5b6119fd8e60208f01358f0161166b565b909b50995060408d0135811015611a12578586fd5b611a228e60408f01358f0161166b565b9099509750611a3360608e01611660565b965060808d01359550611a4860a08e01611780565b94508060c08e01351115611a5a578384fd5b50611a6b8d60c08e01358e0161166b565b9093509150611a7c60e08d01611660565b90509295989b509295989b9093969950565b60008060008060008060a08789031215611aa6578182fd5b8635611ab181612208565b955060208701359450611ac660408801611780565b9350606087013567ffffffffffffffff811115611ae1578283fd5b611aed89828a0161166b565b9094509250506080870135611b0181612208565b809150509295509295509295565b600060208284031215611b20578081fd5b815167ffffffffffffffff811115611b36578182fd5b611b4284828501611722565b949350505050565b600060208284031215611b5b578081fd5b815180151581146117b0578182fd5b600060208284031215611b7b578081fd5b81357fffffffff00000000000000000000000000000000000000000000000000000000811681146117b0578182fd5b600060208284031215611bbb578081fd5b815167ffffffffffffffff80821115611bd2578283fd5b9083019060608286031215611be5578283fd5b604051606081018181108382111715611bfa57fe5b6040528251611c0881612208565b815260208381015190820152604083015182811115611c25578485fd5b611c3187828601611722565b60408301525095945050505050565b600060208284031215611c51578081fd5b5051919050565b60008284527f07ffffffffffffffffffffffffffffffffffffffffffffffffffffffffffffff831115611c89578081fd5b6020830280836020870137939093016020019283525090919050565b6000815180845260208085019450808401835b83811015611cd457815187529582019590820190600101611cb8565b509495945050505050565b73ffffffffffffffffffffffffffffffffffffffff91909116815260200190565b73ffffffffffffffffffffffffffffffffffffffff929092168252602082015260400190565b600060208252611b42602083018486611c58565b600060e08252611d4e60e083018b8d611c58565b602083820381850152611d62828b8d611c58565b604085018a90526060850189905273ffffffffffffffffffffffffffffffffffffffff888116608087015285820360a0870152875180835283890194509091830190855b81811015611dc4578551841683529484019491840191600101611da6565b505085810360c0870152611dd88188611ca5565b9f9e505050505050505050505050505050565b6000602082526117b06020830184611ca5565b600060408252611e116040830185611ca5565b8281036020840152611e238185611ca5565b95945050505050565b901515815260200190565b7fffffffff0000000000000000000000000000000000000000000000000000000091909116815260200190565b6000602080835283518082850152825b81811015611e9057858101830151858201604001528201611e74565b81811115611ea15783604083870101525b50601f017fffffffffffffffffffffffffffffffffffffffffffffffffffffffffffffffe016929092016040019392505050565b6020808252602d908201527f5061796d656e7450726f787923776974686472617745524332303a20494e564160408201527f4c49445f524543495049454e5400000000000000000000000000000000000000606082015260800190565b6020808252602a908201527f4f776e61626c65237472616e736665724f776e6572736869703a20494e56414c60408201527f49445f4144445245535300000000000000000000000000000000000000000000606082015260800190565b60208082526022908201527f5061796d656e7450726f7879235f3a20554e535550504f525445445f4d45544860408201527f4f44000000000000000000000000000000000000000000000000000000000000606082015260800190565b60208082526029908201527f5061796d656e7450726f78792370757263686173654974656d733a20494e564160408201527f4c49445f4e4f4e43450000000000000000000000000000000000000000000000606082015260800190565b60208082526026908201527f4f776e61626c65236f6e6c794f776e65723a2053454e4445525f49535f4e4f5460408201527f5f4f574e45520000000000000000000000000000000000000000000000000000606082015260800190565b6020808252603c908201527f5061796d656e7450726f7879236f6e455243313135354261746368526563656960408201527f7665643a20494e56414c49445f4954454d535f50555243484153454400000000606082015260800190565b60208082526032908201527f5061796d656e7450726f7879236f6e455243313135354261746368526563656960408201527f7665643a20494e56414c49445f4e4f4e43450000000000000000000000000000606082015260800190565b6020808252603b908201527f5061796d656e7450726f78792370757263686173654974656d733a20494e564160408201527f4c49445f5041594d454e545f544f4b454e5f4f525f414d4f554e540000000000606082015260800190565b90815260200190565b60405181810167ffffffffffffffff811182821017156121e257fe5b604052919050565b600067ffffffffffffffff8211156121fe57fe5b5060209081020190565b73ffffffffffffffffffffffffffffffffffffffff8116811461161157600080fdfe5472616e7366657248656c7065723a3a7472616e7366657246726f6d3a207472616e7366657246726f6d206661696c65645472616e7366657248656c7065723a3a73616665417070726f76653a20617070726f7665206661696c65645472616e7366657248656c7065723a3a736166655472616e736665723a207472616e73666572206661696c6564a264697066735822122009446d34dcdf116a0fef352530b0fafcdb3cdd24e2f0dae9ecc505181fc2c1fa64736f6c63430007040033",
  "linkReferences": {},
  "deployedLinkReferences": {}
}